{
  "_format": "hh-sol-artifact-1",
  "contractName": "TokenLaunchpad",
  "sourceName": "contracts/TokenLaunchpad.sol",
  "abi": [
    {
      "anonymous": false,
      "inputs": [
        {
          "indexed": false,
          "internalType": "uint256",
          "name": "availableQty",
          "type": "uint256"
        }
      ],
      "name": "AvailableQuantity",
      "type": "event"
    },
    {
      "anonymous": false,
      "inputs": [
        {
          "indexed": false,
          "internalType": "uint256",
          "name": "requiredEth",
          "type": "uint256"
        }
      ],
      "name": "EthRequired",
      "type": "event"
    },
    {
      "anonymous": false,
      "inputs": [
        {
          "indexed": false,
          "internalType": "uint256",
          "name": "liquidity",
          "type": "uint256"
        }
      ],
      "name": "LPTokensBurned",
      "type": "event"
    },
    {
      "anonymous": false,
      "inputs": [
        {
          "indexed": false,
          "internalType": "address",
          "name": "pool",
          "type": "address"
        }
      ],
      "name": "LiquidityPoolCreated",
      "type": "event"
    },
    {
      "anonymous": false,
      "inputs": [
        {
          "indexed": false,
          "internalType": "uint256",
          "name": "liquidity",
          "type": "uint256"
        }
      ],
      "name": "LiquidityProvided",
      "type": "event"
    },
    {
      "anonymous": false,
      "inputs": [
        {
          "indexed": false,
          "internalType": "uint256",
          "name": "currentSupply",
          "type": "uint256"
        },
        {
          "indexed": false,
          "internalType": "uint256",
          "name": "maxSupply",
          "type": "uint256"
        },
        {
          "indexed": false,
          "internalType": "uint256",
          "name": "availableQty",
          "type": "uint256"
        }
      ],
      "name": "TokenSupplyDetails",
      "type": "event"
    },
    {
      "anonymous": false,
      "inputs": [
        {
          "indexed": true,
          "internalType": "address",
          "name": "user",
          "type": "address"
        },
        {
          "indexed": false,
          "internalType": "uint256",
          "name": "balance",
          "type": "uint256"
        }
      ],
      "name": "UserBalance",
      "type": "event"
    },
    {
      "inputs": [],
      "name": "INITIAL_PRICE",
      "outputs": [
        {
          "internalType": "uint256",
          "name": "",
          "type": "uint256"
        }
      ],
      "stateMutability": "view",
      "type": "function"
    },
    {
      "inputs": [],
      "name": "K",
      "outputs": [
        {
          "internalType": "uint256",
          "name": "",
          "type": "uint256"
        }
      ],
      "stateMutability": "view",
      "type": "function"
    },
    {
      "inputs": [
        {
          "internalType": "address",
          "name": "",
          "type": "address"
        }
      ],
      "name": "addressToMemeTokenMapping",
      "outputs": [
        {
          "internalType": "string",
          "name": "name",
          "type": "string"
        },
        {
          "internalType": "string",
          "name": "symbol",
          "type": "string"
        },
        {
          "internalType": "string",
          "name": "description",
          "type": "string"
        },
        {
          "internalType": "string",
          "name": "tokenImageUrl",
          "type": "string"
        },
        {
          "internalType": "uint256",
          "name": "fundingRaised",
          "type": "uint256"
        },
        {
          "internalType": "address",
          "name": "tokenAddress",
          "type": "address"
        },
        {
          "internalType": "address",
          "name": "creatorAddress",
          "type": "address"
        }
      ],
      "stateMutability": "view",
      "type": "function"
    },
    {
      "inputs": [
        {
          "internalType": "address",
          "name": "memeTokenAddress",
          "type": "address"
        },
        {
          "internalType": "uint256",
          "name": "tokenQty",
          "type": "uint256"
        }
      ],
      "name": "buyMemeToken",
      "outputs": [
        {
          "internalType": "uint256",
          "name": "",
          "type": "uint256"
        }
      ],
      "stateMutability": "payable",
      "type": "function"
    },
    {
      "inputs": [
        {
          "internalType": "uint256",
          "name": "currentSupply",
          "type": "uint256"
        },
        {
          "internalType": "uint256",
          "name": "tokensToBuy",
          "type": "uint256"
        }
      ],
      "name": "calculateCost",
      "outputs": [
        {
          "internalType": "uint256",
          "name": "",
          "type": "uint256"
        }
      ],
      "stateMutability": "pure",
      "type": "function"
    },
    {
      "inputs": [
        {
          "internalType": "string",
          "name": "name",
          "type": "string"
        },
        {
          "internalType": "string",
          "name": "symbol",
          "type": "string"
        },
        {
          "internalType": "string",
          "name": "imageUrl",
          "type": "string"
        },
        {
          "internalType": "string",
          "name": "description",
          "type": "string"
        }
      ],
      "name": "createMemeToken",
      "outputs": [
        {
          "internalType": "address",
          "name": "",
          "type": "address"
        }
      ],
      "stateMutability": "payable",
      "type": "function"
    },
    {
      "inputs": [],
      "name": "getAllMemeTokens",
      "outputs": [
        {
          "components": [
            {
              "internalType": "string",
              "name": "name",
              "type": "string"
            },
            {
              "internalType": "string",
              "name": "symbol",
              "type": "string"
            },
            {
              "internalType": "string",
              "name": "description",
              "type": "string"
            },
            {
              "internalType": "string",
              "name": "tokenImageUrl",
              "type": "string"
            },
            {
              "internalType": "uint256",
              "name": "fundingRaised",
              "type": "uint256"
            },
            {
              "internalType": "address",
              "name": "tokenAddress",
              "type": "address"
            },
            {
              "internalType": "address",
              "name": "creatorAddress",
              "type": "address"
            }
          ],
          "internalType": "struct TokenLaunchpad.memeToken[]",
          "name": "",
          "type": "tuple[]"
        }
      ],
      "stateMutability": "view",
      "type": "function"
    },
    {
      "inputs": [
        {
          "internalType": "uint256",
          "name": "",
          "type": "uint256"
        }
      ],
      "name": "memeTokenAddresses",
      "outputs": [
        {
          "internalType": "address",
          "name": "",
          "type": "address"
        }
      ],
      "stateMutability": "view",
      "type": "function"
    }
  ],
  "bytecode": "0x608080604052346015576121b8908161001b8239f35b600080fdfe6080604052600436101561001257600080fd5b60003560e01c8063075bb17d14610b60578063130da96014610a8257806313cb5ad614610a405780637c5e279514610a1f578063a932492f146109fd578063bcfeed9a146107d0578063ce394696146107a75763e823bfd51461007457600080fd5b604036600319011261032257610088611282565b6001600160a01b039081166000818152600160205260409020600501546024359216156107625780600052600160205260046040600020019182549268014d1120d7b1600000841161071d576040516318160ddd60e01b8152602081600481875afa90811561032f576000916106eb575b5069d3c21bcecceda100000094818603938685116102e2577f2ab86c9f5142ba06410a9e42a11b77c8d8f9af455426928229aa7a13404b059e6060604051858152896020820152876040820152a1670de0b6b3a7640000810294818604670de0b6b3a764000014821517156102e257670de0b6b3a7640000900481116106a6576101a190670de0b6b3a764000061019b692a5a058fc295ed000000809661141f565b0461142c565b7fbd29e97e57cd642d64356a65c3d8479fce8f3d0a7dd9e35aad32afb50656f86d6020604051838152a1341061066e576101e668014d1120d7b1600000913490611412565b808455101561039d575b5050604051906394bf804d60e01b825260048201523360248201526020816044816000865af1801561032f5761036e575b506040516370a0823160e01b8152336004820152602081602481855afa90811561032f5760009161033b575b506004916020916040519081527fd64adc809ada88254918e7e8ac1dce9c708c0aaa0e4c8b974aa9eaa32c4a3553833392a26040516318160ddd60e01b815292839182905afa90811561032f576000916102f8575b5081039081116102e25760207ff7a525a8c842f3dade00d3f39c2c8315ffcfec108eb9e7ad94eedc1da8f8eecb91604051908152a1602060405160018152f35b634e487b7160e01b600052601160045260246000fd5b90506020813d602011610327575b816103136020938361120b565b810103126103225751386102a2565b600080fd5b3d9150610306565b6040513d6000823e3d90fd5b90506020813d602011610366575b816103566020938361120b565b810103126103225751600461024d565b3d9150610349565b6020813d602011610395575b816103876020938361120b565b810103126103225751610221565b3d915061037a565b6040516315ab88c960e31b81529160208360048173ee567fe1712faf6149d80da1e6934e354124cfe35afa92831561032f5760009361064d575b506040516364e329cb60e11b8152600481018690526001600160a01b039093166024840152602083604481600073f62c03e08ada871a0beb309762e260a7a6a880e65af192831561032f5760009361061c575b506040516001600160a01b03909316808452927f969ffc8569f9af3993220e04ac05164e5db4e3d9f8b1a47f64e7de9a04b8ea2f90602090a15460405163095ea7b360e01b815273ee567fe1712faf6149d80da1e6934e354124cfe3600482015260248101839052909160208260448160008a5af191821561032f576060926105ff575b5060c46040518094819363f305d71960e01b835289600484015280602484015260448301528060648301523060848301524260a483015273ee567fe1712faf6149d80da1e6934e354124cfe35af190811561032f576000916105c6575b5060206000927fce3cb3e333b281be34fbd7d44697fb13524438a59700230949b94ae0701339c582604051858152a160446040518095819363a9059cbb60e01b83528160048401528660248401525af190811561032f577f599e3c1445f5d3f97307a24763cc7d200c7c523b685562a5df07759410a411ec9260209261059b575b50604051908152a138806101f0565b6105ba90833d85116105bf575b6105b2818361120b565b810190611583565b61058c565b503d6105a8565b906060823d6060116105f7575b816105e06060938361120b565b810103126105f4575060400151602061050b565b80fd5b3d91506105d3565b6106179060203d6020116105bf576105b2818361120b565b6104ae565b61063f91935060203d602011610646575b610637818361120b565b810190611564565b913861042a565b503d61062d565b61066791935060203d60201161064657610637818361120b565b91386103d7565b60405162461bcd60e51b815260206004820152601060248201526f092dce6eaccccd2c6d2cadce8408aa8960831b6044820152606490fd5b60405162461bcd60e51b815260206004820152601860248201527f4578636565647320617661696c61626c6520746f6b656e7300000000000000006044820152606490fd5b906020823d602011610715575b816107056020938361120b565b810103126105f4575051386100f9565b3d91506106f8565b60405162461bcd60e51b815260206004820152601c60248201527f46756e64696e6720676f616c20616c72656164792072656163686564000000006044820152606490fd5b60405162461bcd60e51b815260206004820152601760248201527f546f6b656e206973206e6f74206c6973746564207965740000000000000000006044820152606490fd5b346103225760403660031901126103225760206107c860243560043561142c565b604051908152f35b34610322576000366003190112610322576000546107ed816113e7565b906107fb604051928361120b565b808252601f1961080a826113e7565b0160005b8181106109b657505060005b8181106108fe57826040518091602082016020835281518091526040830190602060408260051b8601019301916000905b82821061085a57505050500390f35b919360019193955060208091603f1989820301855287519060c06108c46108b26108a0610890865160e0875260e0870190611376565b8787015186820389880152611376565b60408601518582036040870152611376565b60608501518482036060860152611376565b9260808101516080840152868060a01b0360a08201511660a084015281878060a01b0391015116910152960192019201859493919261084b565b8061090a6001926113b7565b838060a01b0391549060031b1c1660005281602052604060002060405190610931826111f0565b61093a816112d2565b82526109478482016112d2565b6020830152610958600282016112d2565b6040830152610969600382016112d2565b606083015260048101546080830152838060a01b0360058201541660a08301526006848060a01b039101541660c08201526109a482866113fe565b526109af81856113fe565b500161081a565b6020906040516109c5816111f0565b606081526060838201526060604082015260608082015260006080820152600060a0820152600060c08201528282870101520161080e565b34610322576000366003190112610322576020604051661c6bf5263400008152f35b34610322576000366003190112610322576020604051651b48eb57e0008152f35b346103225760203660031901126103225760043560005481101561032257610a696020916113b7565b905460405160039290921b1c6001600160a01b03168152f35b34610322576020366003190112610322576001600160a01b03610aa3611282565b166000526001602052610b226040600020610abd816112d2565b90610aca600182016112d2565b610ad6600283016112d2565b91610b4c610ae6600383016112d2565b610b3e600484015495610b3060018060a01b0360058701541695600660018060a01b0391015416966040519a8b9a60e08c5260e08c0190611376565b908a820360208c0152611376565b9088820360408a0152611376565b908682036060880152611376565b92608085015260a084015260c08301520390f35b6080366003190112610322576004356001600160401b03811161032257610b8b90369060040161122c565b6024356001600160401b03811161032257610baa90369060040161122c565b6044356001600160401b03811161032257610bc990369060040161122c565b906064356001600160401b03811161032257610be990369060040161122c565b92655af3107a400034106111ab57604051610be7808201692a5a058fc295ed0000006001600160401b03821184831017610f4c57839261159c8439606082526040610c48610c3a6060850188611376565b848103602086015288611376565b92015203906000f0801561032f5760018060a01b03169160405191610c6c836111f0565b825260208201908152604082019485526060820193845260808201946000865260a083019084825260c084019233845260005468010000000000000000811015610f4c57806001610cc092016000556113b7565b81546001600160a01b0360039290921b91821b19169088901b179055600086815260016020526040902094518051906001600160401b038211610f4c578190610d098854611298565b601f8111611158575b50602090601f83116001146110f3576000926110e8575b50508160011b916000199060031b1c19161785555b51805160018601916001600160401b038211610f4c578190610d608454611298565b601f8111611095575b50602090601f831160011461103057600092611025575b50508160011b916000199060031b1c19161790555b51805160028501916001600160401b038211610f4c578190610db78454611298565b601f8111610fd2575b50602090601f8311600114610f6d57600092610f62575b50508160011b916000199060031b1c19161790555b600383019451958651956001600160401b038711610f4c57610e0e8154611298565b97601f8911610f04575b602098508890601f8911600114610e9a579780916006979899600092610e8f575b50508160011b916000199060031b1c19161790555b516004850155516005840180546001600160a01b039283166001600160a01b0319918216179091559151929093018054929093169116179055604051908152f35b015190508a80610e39565b90601f1989169183600052816000209260005b818110610eed575091600193918b60069a9b9c9410610ed4575b505050811b019055610e4e565b015160001960f88460031b161c191690558a8080610ec7565b92938c600181928786015181550195019301610ead565b816000526020600020601f890160051c81019960208a10610f42575b601f0160051c01985b898110610f365750610e18565b60008155600101610f29565b9099508990610f20565b634e487b7160e01b600052604160045260246000fd5b015190508980610dd7565b60008581528281209350601f198516905b818110610fba5750908460019594939210610fa1575b505050811b019055610dec565b015160001960f88460031b161c19169055898080610f94565b92936020600181928786015181550195019301610f7e565b909150836000526020600020601f840160051c8101916020851061101b575b90601f859493920160051c01905b81811061100c5750610dc0565b60008155849350600101610fff565b9091508190610ff1565b015190508a80610d80565b60008581528281209350601f198516905b81811061107d5750908460019594939210611064575b505050811b019055610d95565b015160001960f88460031b161c191690558a8080611057565b92936020600181928786015181550195019301611041565b909150836000526020600020601f840160051c810191602085106110de575b90601f859493920160051c01905b8181106110cf5750610d69565b600081558493506001016110c2565b90915081906110b4565b015190508a80610d29565b60008981528281209350601f198516905b8181106111405750908460019594939210611127575b505050811b018555610d3e565b015160001960f88460031b161c191690558a808061111a565b92936020600181928786015181550195019301611104565b909150876000526020600020601f840160051c810191602085106111a1575b90601f859493920160051c01905b8181106111925750610d12565b60008155849350600101611185565b9091508190611177565b60405162461bcd60e51b815260206004820152601960248201527f466565206e6f74207061696420666f72206372656174696f6e000000000000006044820152606490fd5b60e081019081106001600160401b03821117610f4c57604052565b90601f801991011681019081106001600160401b03821117610f4c57604052565b81601f82011215610322578035906001600160401b038211610f4c5760405192611260601f8401601f19166020018561120b565b8284526020838301011161032257816000926020809301838601378301015290565b600435906001600160a01b038216820361032257565b90600182811c921680156112c8575b60208310146112b257565b634e487b7160e01b600052602260045260246000fd5b91607f16916112a7565b90604051918260008254926112e684611298565b8084529360018116908115611354575060011461130d575b5061130b9250038361120b565b565b90506000929192526020600020906000915b81831061133857505090602061130b92820101386112fe565b602091935080600191548385890101520191019091849261131f565b90506020925061130b94915060ff191682840152151560051b820101386112fe565b919082519283825260005b8481106113a2575050826000602080949584010152601f8019910116010190565b80602080928401015182828601015201611381565b6000548110156113d1576000805260206000200190600090565b634e487b7160e01b600052603260045260246000fd5b6001600160401b038111610f4c5760051b60200190565b80518210156113d15760209160051b010190565b919082018092116102e257565b919082039182116102e257565b906114379082611412565b9081661c6bf5263400000291661c6bf5263400008304036102e25780661c6bf5263400000290661c6bf5263400008204036102e25761148d670de0b6b3a76400006114868161149395046114c8565b92046114c8565b9061141f565b806d017aa73a606841b3e1738000000002906d017aa73a606841b3e173800000008204036102e257661c6bf526340000900490565b670de0b6b3a76400009190600190835b60148311156114e657505050565b818102908082048314901517156102e257670de0b6b3a7640000830290838204670de0b6b3a764000014841517156102e25760008215611550575004916001611530848097611412565b93106115495760001981146102e25760010191936114d8565b5090925050565b634e487b7160e01b81526012600452602490fd5b9081602091031261032257516001600160a01b03811681036103225790565b9081602091031261032257518015158103610322579056fe6080604052346103c157610be780380380610019816103c6565b9283398101906060818303126103c15780516001600160401b0381116103c157826100459183016103eb565b60208201519092906001600160401b0381116103c1576040916100699184016103eb565b91015182516001600160401b0381116102ca57600354600181811c911680156103b7575b60208210146102aa57601f8111610352575b506020601f82116001146102eb57819293946000926102e0575b50508160011b916000199060031b1c1916176003555b81516001600160401b0381116102ca57600454600181811c911680156102c0575b60208210146102aa57601f8111610245575b50602092601f82116001146101e057928192936000926101d5575b50508160011b916000199060031b1c1916176004555b33156101bf576002548181018091116101a957600255600033815280602052604081208281540190556040519182527fddf252ad1be2c89b69c2b068fc378daa952ba7f163c4a11628f55a4df523b3ef60203393a3600580546001600160a01b0319163317905560405161079090816104578239f35b634e487b7160e01b600052601160045260246000fd5b63ec442f0560e01b600052600060045260246000fd5b01519050388061011d565b601f198216936004600052806000209160005b86811061022d5750836001959610610214575b505050811b01600455610133565b015160001960f88460031b161c19169055388080610206565b919260206001819286850151815501940192016101f3565b60046000527f8a35acfbc15ff81a39ae7d344fd709f28e8600b4aa8c65c6b64bfe7fe36bd19b601f830160051c810191602084106102a0575b601f0160051c01905b8181106102945750610102565b60008155600101610287565b909150819061027e565b634e487b7160e01b600052602260045260246000fd5b90607f16906100f0565b634e487b7160e01b600052604160045260246000fd5b0151905038806100b9565b601f198216906003600052806000209160005b81811061033a57509583600195969710610321575b505050811b016003556100cf565b015160001960f88460031b161c19169055388080610313565b9192602060018192868b0151815501940192016102fe565b60036000527fc2575a0e9e593c00f959f8c92f12db2869c3395a3b0502d05e2516446f71f85b601f830160051c810191602084106103ad575b601f0160051c01905b8181106103a1575061009f565b60008155600101610394565b909150819061038b565b90607f169061008d565b600080fd5b6040519190601f01601f191682016001600160401b038111838210176102ca57604052565b81601f820112156103c1578051906001600160401b0382116102ca5761041a601f8301601f19166020016103c6565b92828452602083830101116103c15760005b82811061044157505060206000918301015290565b8060208092840101518282870101520161042c56fe608080604052600436101561001357600080fd5b60003560e01c90816306fdde031461056357508063095ea7b3146104dd57806318160ddd146104bf57806323b872dd146103d2578063313ce567146103b657806370a082311461037c5780638da5cb5b1461035357806394bf804d1461024057806395d89b411461011f578063a9059cbb146100ee5763dd62ed3e1461009857600080fd5b346100e95760403660031901126100e9576100b161067f565b6100b9610695565b6001600160a01b039182166000908152600160209081526040808320949093168252928352819020549051908152f35b600080fd5b346100e95760403660031901126100e95761011461010a61067f565b60243590336106ab565b602060405160018152f35b346100e95760003660031901126100e95760405160006004548060011c90600181168015610236575b6020831081146102225782855290811561020657506001146101af575b50819003601f01601f191681019067ffffffffffffffff8211818310176101995761019582918260405282610636565b0390f35b634e487b7160e01b600052604160045260246000fd5b905060046000527f8a35acfbc15ff81a39ae7d344fd709f28e8600b4aa8c65c6b64bfe7fe36bd19b6000905b8282106101f057506020915082010182610165565b60018160209254838588010152019101906101db565b90506020925060ff191682840152151560051b82010182610165565b634e487b7160e01b84526022600452602484fd5b91607f1691610148565b346100e95760403660031901126100e95760043561025c610695565b6005546001600160a01b03163303610302576001600160a01b03169081156102ec576002548181018091116102d6576002557fddf252ad1be2c89b69c2b068fc378daa952ba7f163c4a11628f55a4df523b3ef602060009284845283825260408420818154019055604051908152a3602060405160018152f35b634e487b7160e01b600052601160045260246000fd5b63ec442f0560e01b600052600060045260246000fd5b60405162461bcd60e51b8152602060048201526024808201527f4d696e742063616e206f6e6c792062652063616c6c656420627920746865206f6044820152633bb732b960e11b6064820152608490fd5b346100e95760003660031901126100e9576005546040516001600160a01b039091168152602090f35b346100e95760203660031901126100e9576001600160a01b0361039d61067f565b1660005260006020526020604060002054604051908152f35b346100e95760003660031901126100e957602060405160128152f35b346100e95760603660031901126100e9576103eb61067f565b6103f3610695565b6001600160a01b0382166000818152600160209081526040808320338452909152902054909260443592916000198110610433575b5061011493506106ab565b8381106104a257841561048c57331561047657610114946000526001602052604060002060018060a01b0333166000526020528360406000209103905584610428565b634a1406b160e11b600052600060045260246000fd5b63e602df0560e01b600052600060045260246000fd5b8390637dc7a0d960e11b6000523360045260245260445260646000fd5b346100e95760003660031901126100e9576020600254604051908152f35b346100e95760403660031901126100e9576104f661067f565b60243590331561048c576001600160a01b031690811561047657336000526001602052604060002082600052602052806040600020556040519081527f8c5be1e5ebec7d5bd14f71427d1e84f3dd0314c0f7b2291e5b200ac8c7c3b92560203392a3602060405160018152f35b346100e95760003660031901126100e95760006003548060011c9060018116801561062c575b6020831081146102225782855290811561020657506001146105d55750819003601f01601f191681019067ffffffffffffffff8211818310176101995761019582918260405282610636565b905060036000527fc2575a0e9e593c00f959f8c92f12db2869c3395a3b0502d05e2516446f71f85b6000905b82821061061657506020915082010182610165565b6001816020925483858801015201910190610601565b91607f1691610589565b91909160208152825180602083015260005b818110610669575060409293506000838284010152601f8019910116010190565b8060208092870101516040828601015201610648565b600435906001600160a01b03821682036100e957565b602435906001600160a01b03821682036100e957565b6001600160a01b0316908115610744576001600160a01b03169182156102ec57600082815280602052604081205482811061072a5791604082827fddf252ad1be2c89b69c2b068fc378daa952ba7f163c4a11628f55a4df523b3ef958760209652828652038282205586815280845220818154019055604051908152a3565b916064928463391434e360e21b8452600452602452604452fd5b634b637e8f60e11b600052600060045260246000fdfea2646970667358221220290fe2fe97c3adfe928f8393310f755f4a4f1929c1a599ce412a7fb62ecbfe9264736f6c634300081c0033a264697066735822122023b77a6e8c646805b6d3f5bfe5efeeb014ce815cfd4ea1dc36cc1c7fe3b32de764736f6c634300081c0033",
  "linkReferences": {},
  "deployedLinkReferences": {}
}