{
  "_format": "hh-sol-artifact-1",
  "contractName": "Token",
  "sourceName": "contracts/Token.sol",
  "abi": [
    {
      "inputs": [
        {
          "internalType": "string",
          "name": "name",
          "type": "string"
        },
        {
          "internalType": "string",
          "name": "symbol",
          "type": "string"
        },
        {
          "internalType": "uint256",
          "name": "initialMintValue",
          "type": "uint256"
        }
      ],
      "stateMutability": "nonpayable",
      "type": "constructor"
    },
    {
      "inputs": [
        {
          "internalType": "address",
          "name": "spender",
          "type": "address"
        },
        {
          "internalType": "uint256",
          "name": "allowance",
          "type": "uint256"
        },
        {
          "internalType": "uint256",
          "name": "needed",
          "type": "uint256"
        }
      ],
      "name": "ERC20InsufficientAllowance",
      "type": "error"
    },
    {
      "inputs": [
        {
          "internalType": "address",
          "name": "sender",
          "type": "address"
        },
        {
          "internalType": "uint256",
          "name": "balance",
          "type": "uint256"
        },
        {
          "internalType": "uint256",
          "name": "needed",
          "type": "uint256"
        }
      ],
      "name": "ERC20InsufficientBalance",
      "type": "error"
    },
    {
      "inputs": [
        {
          "internalType": "address",
          "name": "approver",
          "type": "address"
        }
      ],
      "name": "ERC20InvalidApprover",
      "type": "error"
    },
    {
      "inputs": [
        {
          "internalType": "address",
          "name": "receiver",
          "type": "address"
        }
      ],
      "name": "ERC20InvalidReceiver",
      "type": "error"
    },
    {
      "inputs": [
        {
          "internalType": "address",
          "name": "sender",
          "type": "address"
        }
      ],
      "name": "ERC20InvalidSender",
      "type": "error"
    },
    {
      "inputs": [
        {
          "internalType": "address",
          "name": "spender",
          "type": "address"
        }
      ],
      "name": "ERC20InvalidSpender",
      "type": "error"
    },
    {
      "anonymous": false,
      "inputs": [
        {
          "indexed": true,
          "internalType": "address",
          "name": "owner",
          "type": "address"
        },
        {
          "indexed": true,
          "internalType": "address",
          "name": "spender",
          "type": "address"
        },
        {
          "indexed": false,
          "internalType": "uint256",
          "name": "value",
          "type": "uint256"
        }
      ],
      "name": "Approval",
      "type": "event"
    },
    {
      "anonymous": false,
      "inputs": [
        {
          "indexed": true,
          "internalType": "address",
          "name": "from",
          "type": "address"
        },
        {
          "indexed": true,
          "internalType": "address",
          "name": "to",
          "type": "address"
        },
        {
          "indexed": false,
          "internalType": "uint256",
          "name": "value",
          "type": "uint256"
        }
      ],
      "name": "Transfer",
      "type": "event"
    },
    {
      "inputs": [
        {
          "internalType": "address",
          "name": "owner",
          "type": "address"
        },
        {
          "internalType": "address",
          "name": "spender",
          "type": "address"
        }
      ],
      "name": "allowance",
      "outputs": [
        {
          "internalType": "uint256",
          "name": "",
          "type": "uint256"
        }
      ],
      "stateMutability": "view",
      "type": "function"
    },
    {
      "inputs": [
        {
          "internalType": "address",
          "name": "spender",
          "type": "address"
        },
        {
          "internalType": "uint256",
          "name": "value",
          "type": "uint256"
        }
      ],
      "name": "approve",
      "outputs": [
        {
          "internalType": "bool",
          "name": "",
          "type": "bool"
        }
      ],
      "stateMutability": "nonpayable",
      "type": "function"
    },
    {
      "inputs": [
        {
          "internalType": "address",
          "name": "account",
          "type": "address"
        }
      ],
      "name": "balanceOf",
      "outputs": [
        {
          "internalType": "uint256",
          "name": "",
          "type": "uint256"
        }
      ],
      "stateMutability": "view",
      "type": "function"
    },
    {
      "inputs": [],
      "name": "decimals",
      "outputs": [
        {
          "internalType": "uint8",
          "name": "",
          "type": "uint8"
        }
      ],
      "stateMutability": "view",
      "type": "function"
    },
    {
      "inputs": [
        {
          "internalType": "uint256",
          "name": "mintQty",
          "type": "uint256"
        },
        {
          "internalType": "address",
          "name": "receiver",
          "type": "address"
        }
      ],
      "name": "mint",
      "outputs": [
        {
          "internalType": "uint256",
          "name": "",
          "type": "uint256"
        }
      ],
      "stateMutability": "nonpayable",
      "type": "function"
    },
    {
      "inputs": [],
      "name": "name",
      "outputs": [
        {
          "internalType": "string",
          "name": "",
          "type": "string"
        }
      ],
      "stateMutability": "view",
      "type": "function"
    },
    {
      "inputs": [],
      "name": "owner",
      "outputs": [
        {
          "internalType": "address",
          "name": "",
          "type": "address"
        }
      ],
      "stateMutability": "view",
      "type": "function"
    },
    {
      "inputs": [],
      "name": "symbol",
      "outputs": [
        {
          "internalType": "string",
          "name": "",
          "type": "string"
        }
      ],
      "stateMutability": "view",
      "type": "function"
    },
    {
      "inputs": [],
      "name": "totalSupply",
      "outputs": [
        {
          "internalType": "uint256",
          "name": "",
          "type": "uint256"
        }
      ],
      "stateMutability": "view",
      "type": "function"
    },
    {
      "inputs": [
        {
          "internalType": "address",
          "name": "to",
          "type": "address"
        },
        {
          "internalType": "uint256",
          "name": "value",
          "type": "uint256"
        }
      ],
      "name": "transfer",
      "outputs": [
        {
          "internalType": "bool",
          "name": "",
          "type": "bool"
        }
      ],
      "stateMutability": "nonpayable",
      "type": "function"
    },
    {
      "inputs": [
        {
          "internalType": "address",
          "name": "from",
          "type": "address"
        },
        {
          "internalType": "address",
          "name": "to",
          "type": "address"
        },
        {
          "internalType": "uint256",
          "name": "value",
          "type": "uint256"
        }
      ],
      "name": "transferFrom",
      "outputs": [
        {
          "internalType": "bool",
          "name": "",
          "type": "bool"
        }
      ],
      "stateMutability": "nonpayable",
      "type": "function"
    }
  ],
  "bytecode": "0x6080604052346103c157610be780380380610019816103c6565b9283398101906060818303126103c15780516001600160401b0381116103c157826100459183016103eb565b60208201519092906001600160401b0381116103c1576040916100699184016103eb565b91015182516001600160401b0381116102ca57600354600181811c911680156103b7575b60208210146102aa57601f8111610352575b506020601f82116001146102eb57819293946000926102e0575b50508160011b916000199060031b1c1916176003555b81516001600160401b0381116102ca57600454600181811c911680156102c0575b60208210146102aa57601f8111610245575b50602092601f82116001146101e057928192936000926101d5575b50508160011b916000199060031b1c1916176004555b33156101bf576002548181018091116101a957600255600033815280602052604081208281540190556040519182527fddf252ad1be2c89b69c2b068fc378daa952ba7f163c4a11628f55a4df523b3ef60203393a3600580546001600160a01b0319163317905560405161079090816104578239f35b634e487b7160e01b600052601160045260246000fd5b63ec442f0560e01b600052600060045260246000fd5b01519050388061011d565b601f198216936004600052806000209160005b86811061022d5750836001959610610214575b505050811b01600455610133565b015160001960f88460031b161c19169055388080610206565b919260206001819286850151815501940192016101f3565b60046000527f8a35acfbc15ff81a39ae7d344fd709f28e8600b4aa8c65c6b64bfe7fe36bd19b601f830160051c810191602084106102a0575b601f0160051c01905b8181106102945750610102565b60008155600101610287565b909150819061027e565b634e487b7160e01b600052602260045260246000fd5b90607f16906100f0565b634e487b7160e01b600052604160045260246000fd5b0151905038806100b9565b601f198216906003600052806000209160005b81811061033a57509583600195969710610321575b505050811b016003556100cf565b015160001960f88460031b161c19169055388080610313565b9192602060018192868b0151815501940192016102fe565b60036000527fc2575a0e9e593c00f959f8c92f12db2869c3395a3b0502d05e2516446f71f85b601f830160051c810191602084106103ad575b601f0160051c01905b8181106103a1575061009f565b60008155600101610394565b909150819061038b565b90607f169061008d565b600080fd5b6040519190601f01601f191682016001600160401b038111838210176102ca57604052565b81601f820112156103c1578051906001600160401b0382116102ca5761041a601f8301601f19166020016103c6565b92828452602083830101116103c15760005b82811061044157505060206000918301015290565b8060208092840101518282870101520161042c56fe608080604052600436101561001357600080fd5b60003560e01c90816306fdde031461056357508063095ea7b3146104dd57806318160ddd146104bf57806323b872dd146103d2578063313ce567146103b657806370a082311461037c5780638da5cb5b1461035357806394bf804d1461024057806395d89b411461011f578063a9059cbb146100ee5763dd62ed3e1461009857600080fd5b346100e95760403660031901126100e9576100b161067f565b6100b9610695565b6001600160a01b039182166000908152600160209081526040808320949093168252928352819020549051908152f35b600080fd5b346100e95760403660031901126100e95761011461010a61067f565b60243590336106ab565b602060405160018152f35b346100e95760003660031901126100e95760405160006004548060011c90600181168015610236575b6020831081146102225782855290811561020657506001146101af575b50819003601f01601f191681019067ffffffffffffffff8211818310176101995761019582918260405282610636565b0390f35b634e487b7160e01b600052604160045260246000fd5b905060046000527f8a35acfbc15ff81a39ae7d344fd709f28e8600b4aa8c65c6b64bfe7fe36bd19b6000905b8282106101f057506020915082010182610165565b60018160209254838588010152019101906101db565b90506020925060ff191682840152151560051b82010182610165565b634e487b7160e01b84526022600452602484fd5b91607f1691610148565b346100e95760403660031901126100e95760043561025c610695565b6005546001600160a01b03163303610302576001600160a01b03169081156102ec576002548181018091116102d6576002557fddf252ad1be2c89b69c2b068fc378daa952ba7f163c4a11628f55a4df523b3ef602060009284845283825260408420818154019055604051908152a3602060405160018152f35b634e487b7160e01b600052601160045260246000fd5b63ec442f0560e01b600052600060045260246000fd5b60405162461bcd60e51b8152602060048201526024808201527f4d696e742063616e206f6e6c792062652063616c6c656420627920746865206f6044820152633bb732b960e11b6064820152608490fd5b346100e95760003660031901126100e9576005546040516001600160a01b039091168152602090f35b346100e95760203660031901126100e9576001600160a01b0361039d61067f565b1660005260006020526020604060002054604051908152f35b346100e95760003660031901126100e957602060405160128152f35b346100e95760603660031901126100e9576103eb61067f565b6103f3610695565b6001600160a01b0382166000818152600160209081526040808320338452909152902054909260443592916000198110610433575b5061011493506106ab565b8381106104a257841561048c57331561047657610114946000526001602052604060002060018060a01b0333166000526020528360406000209103905584610428565b634a1406b160e11b600052600060045260246000fd5b63e602df0560e01b600052600060045260246000fd5b8390637dc7a0d960e11b6000523360045260245260445260646000fd5b346100e95760003660031901126100e9576020600254604051908152f35b346100e95760403660031901126100e9576104f661067f565b60243590331561048c576001600160a01b031690811561047657336000526001602052604060002082600052602052806040600020556040519081527f8c5be1e5ebec7d5bd14f71427d1e84f3dd0314c0f7b2291e5b200ac8c7c3b92560203392a3602060405160018152f35b346100e95760003660031901126100e95760006003548060011c9060018116801561062c575b6020831081146102225782855290811561020657506001146105d55750819003601f01601f191681019067ffffffffffffffff8211818310176101995761019582918260405282610636565b905060036000527fc2575a0e9e593c00f959f8c92f12db2869c3395a3b0502d05e2516446f71f85b6000905b82821061061657506020915082010182610165565b6001816020925483858801015201910190610601565b91607f1691610589565b91909160208152825180602083015260005b818110610669575060409293506000838284010152601f8019910116010190565b8060208092870101516040828601015201610648565b600435906001600160a01b03821682036100e957565b602435906001600160a01b03821682036100e957565b6001600160a01b0316908115610744576001600160a01b03169182156102ec57600082815280602052604081205482811061072a5791604082827fddf252ad1be2c89b69c2b068fc378daa952ba7f163c4a11628f55a4df523b3ef958760209652828652038282205586815280845220818154019055604051908152a3565b916064928463391434e360e21b8452600452602452604452fd5b634b637e8f60e11b600052600060045260246000fdfea2646970667358221220290fe2fe97c3adfe928f8393310f755f4a4f1929c1a599ce412a7fb62ecbfe9264736f6c634300081c0033",
  "linkReferences": {},
  "deployedLinkReferences": {}
}